:1000000004308A00402C0000201020102022E93308
:10001000693A613600002010202AE832F236EF36C5
:10002000653A65390000D4326D383A1025367510BE
:100030004300363084008313000803192C2806304F
:10004000F800F701F70B2228F80B21287B30F70086
:10005000F70B2828800B1F2808003D1831280612AE
:1000600032280616BD1836288612372886163D19FE
:100070003B2806133C280617BD1940288613412843
:100080008617000086150230F700F70B4528482830
:10009000000086110800BE010030061A0130BE04BF
:1000A0000030861A0130F7000310F70D7708BE0400
:1000B0000030061B0130F700F70DF70DFC30F70597
:1000C0007708BE040030861B0130F700F70DF70DEE
:1000D000F70DF830F7057708BE043E08F800080071
:1000E0008316861186100611831286108316061653
:1000F000861606178617831206150000861500005F
:100100004B207808BD0086110000861587288828B6
:1001100000004B207808BC00861183160612861258
:100120000613861383123D0EF700F030F7057708AB
:100130003C04F8007808BC00BC1B7628BA08031DF4
:10014000A3288610A428861400000611000086113A
:100150003B0EBC000F30BC053C08BD002D203B0809
:100160000F39BC00BD002D200800370BB828BB2874
:100170004030B800BC28B80101303602B807380852
:100180008038B900BA013908BB0070200800350872
:10019000073A0319D5280B3A0319DA28063A031946
:1001A000E228023A0319E828ED280130B600B7002A
:1001B000B520F228BA010130BB0070200230B60031
:1001C0001920F2280130B6000230B700B520F2281D
:1001D000BA011030BB007020F2280130BA00350897
:1001E000BB00702008000C30B500C7200A30B600F4
:1001F000192008000B08AC008B13831603178C170B
:100200000C140000000083120313AC1B8B170317A0
:100210000C087F3903194E290313AC0003170D088E
:100220000313AD0003170F080313AE002C08B5002D
:10023000C7202D0803178D0003132E0803178F0006
:1002400003130B08AF008B13831603178C170C14C2
:100250000000000083120313AF1B8B1703170C0D54
:100260000E0D7F3903194E290313AC0003170D0837
:100270000313AD0003170F080313AE002C08B500DD
:10028000C7202D0803178D0003132E0803178F00B6
:100290008D0A03198F0A0313FA28031703130800A2
:1002A0000130B6000230B700B5200A30B600192080
:1002B0000800850186018701FF3083168500003024
:1002C0008600870083128501860187012830AD00F2
:1002D0000C30AE000130AF000630B0008611861041
:1002E00006118316061286120613861386118610CF
:1002F00006110F308312B60019200130AC002C0813
:10030000033C031C8B290330BD002D200530B600B3
:100310001920AC0A7F290230BD002D200530B6001F
:100320001920AC012C08033C031CA2292D302C07FA
:10033000840083130008B100BA013108BB007020AB
:10034000AC0A922983161F1383121F179F17831657
:100350009F1383121F1483161F109F141F159F15C0
:100360000030F80083121F08C73978049F00F3207B
:100370000130B600B700B5200A30B60019200430AD
:1003800003178D0000308F000313FA2050210B302B
:1003900003178D0000308F000313FA200830AC00E3
:1003A000FA30B6001920AC0BD0298A110A125A2C47
:1003B000F701F8012C0803102D18F707F70CF80CBB
:1003C000AD18F707F70CF80C2D19F707F70CF80C18
:1003D000AD19F707F70CF80C2D1AF707F70CF80C06
:1003E000AD1AF707F70CF80C2D1BF707F70CF80CF4
:1003F000AD1BF707F70CF80C8A110A12682C8E3027
:10040000F7002D08F8002C08F900FA01F808031D80
:10041000132A7908F800F9010830F702F808031DDB
:10042000132AF7011B2A0310F81B1A2AF90DF80DDD
:10043000F703132AF8138A110A126C2C2C080319DB
:10044000E32AB80030080319E32AB802031C2D2A56
:100450007F30B8070318E32A332A8130B802031C1F
:10046000E32A0319E32A3808F700F801F901FA0131
:10047000B7012D08B600B6172E08B5002F08B40036
:100480001930B8003308B4020318562A0130B502F7
:100490000318562AB6020318562AB7020318562A1A
:1004A000B70AB60AB50A3308B407882A3208B50273
:1004B0000318712A0130B6020318712AB702031813
:1004C000712AB70AB60A3208B5073308B407031C05
:1004D000882AB50A031D882AB60A031D882AB70A86
:1004E000882A31088038B6020318872A0130B702FB
:1004F0000318872AB70A31088038B6073208B507CB
:10050000031C652AB60A031D652AB70A652A7A14F0
:10051000B80B8B2A962A0310B40DB50DB60DB70D86
:100520000310FA0DF90DF80DB90D422A391C9E2A57
:100530000310F80CF90CFA0CB90CA12AF7030319F3
:10054000E32AB91BCA2A0310B40DB50DB60DB70DB9
:100550003308B4020318B62A0130B5020318B62ACC
:10056000B6020318B62AB702031CD92A3208B5020C
:100570000318C12A0130B6020318C12AB702031CAE
:10058000D92A31088038B6020318CA2A0130B702C6
:10059000031CD92AFA0A031DD92AF90A031DD92AEC
:1005A000F80A031DD92AF70A0319E32AF80CF90CF3
:1005B000FA0C2D08B8003108B806B81FE12AF81760
:1005C000E72AF813E72AF701F801F901FA018A117D
:1005D0000A12832C2C0803195A2BB4003008031973
:1005E0005A2BB4070318FB2A7F30B402031C5A2B82
:1005F00003195A2BFF2A8130B40703185A2B3408E9
:10060000F700F801F901FA012D08B800B8172E0813
:10061000B7002F08B6001830B400B501361C282BDF
:100620003308FA07031C1A2BF90A031D1A2BF80AC0
:100630000319B5173208F907031C212BF80A03190F
:10064000B5173108AE00AE172E08F8070318B51716
:10065000B50DF80CF90CFA0CB80CB70CB60C03106D
:10066000B40B0D2B0130F70703185A2BF81B3F2B47
:10067000B80DFA0DF90DF80DF70303195A2BB81F31
:10068000502BFA0A031D502BF90A031D502BF80AB0
:10069000031D502BF80CF90CFA0CF70A03195A2B0E
:1006A0002D08B5003108B506B51F582BF8175E2B7D
:1006B000F8135E2BF701F801F901FA018A110A1209
:1006C0009A2C8E30F7002C08F7022D08F9002E081E
:1006D000F800F917F7080319782B0310F908031D20
:1006E000742BF8080319782BF90CF80CF70B6D2B09
:1006F000AD1F7F2BF809F909F80A0319F90A8A11C5
:100700000A12A32C0B08AD008B13831603178C174A
:100710000C140000000083120313AD1B8B17031889
:10072000B92B03170C087F390313AD0003170D080D
:100730000313AE0003170F080313AF002D08B50015
:10074000C7202E0803178D0003132F0803178F00EF
:1007500003130B08B0008B13831603178C170C14AC
:100760000000000083120313B01B8B17AC0BB92BD6
:10077000D82B03170C0D0E0D7F390313AD00031793
:100780000D080313AE0003170F080313AF002D0865
:10079000B500C7202E0803178D0003132F08031779
:1007A0008F008D0A03198F0A03100313AC0B822BE1
:1007B0008A110A12BE2CB4010408B3003410831B42
:1007C00034142D0EF038AF00AF07E23EB000323ED9
:1007D000B2002D080F39B007B007B207E93EB100EB
:1007E000B107B1072C0E0F39B107B207B10DB20D29
:1007F000B209B20D2C080F39B207AF0D0730AE00A9
:100800000A30B207B103031C012CB107B003031C6B
:10081000052CB007AF03031C092CAF07AE03031C64
:100820000D2C2E30840083130730330533138407D7
:1008300032300402031933170008F700031D282C77
:10084000331B282C331A3A2CB319282C20302B2C8C
:10085000B31533123030F707AD010408AC002D108A
:10086000831B2D147708B500C7202C088400831340
:100870002D188317840A331F182C8A110A12C52CCD
:1008800003081F398300A001F230A100A301A201D7
:10089000A701A601A501A401AB01AA01A901A80114
:1008A00083161F149F141F159F1107309C0083137C
:1008B00083125929F3201F151F195C2C1E08A00054
:1008C0006430B60019202008AC000530AD00D829EE
:1008D0007808AD01AC00FF297A08A7007908A600C6
:1008E0007808A5007708A4002708AF002608AE0006
:1008F0002508AD002408AC00B301B2017F30B1007F
:100900008630B0001E2A7A08AB007908AA00780861
:10091000A9007708A8002B08AF002A08AE00290814
:10092000AD002808AC00B301B2014830B1008530F9
:10093000B000EA2A7A08AF007908AE007808AD0066
:100940007708AC00612B7908A3007808A2000A3070
:10095000B600192007150430AC00FA30B600192093
:10096000AC0BAD2CF3205021133003178D00003059
:100970008F00031006300313AC00822B103084006C
:100980002308AD002208AC00DB2B2030B500C720C7
:100990004330B500C7200930B6000230B700B5209B
:1009A0002108B500C7200430AC00FA30B600192089
:0809B000AC0BD52C5A2C63009E
:02400E00321F5F
:00000001FF
;PIC16F876A
;CRC=2963  CREATED="29-Aug-23 14:06"
